:100000000C9446000C9465000C9465000C946500FB
:100010000C9465000C9465000C9465000C946500CC
:100020000C9465000C9465000C9465000C946500BC
:100030000C9465000C9465000C9465000C946500AC
:100040000C9465000C9465000C9465000C9465009C
:100050000C9465000C9465000C9465000C9465008C
:100060000C9465000C9465000C9465000C9465007C
:100070000C9465000C9465000C9465000C9465006C
:100080000C9465000C9465000C94650011241FBE4F
:10009000CFEFD0E4DEBFCDBF11E0A0E0B1E0EAE3F6
:1000A000F2E000E00BBF02C007900D92AE30B10746
:1000B000D9F721E0AEE0B1E001C01D92A031B20756
:1000C000E1F70E94A1000C941B010C940000CF9357
:1000D000DF9300D01F92CDB7DEB789837B836A831D
:1000E00089818A3031F48A819B81BC018DE00E9434
:1000F000670080EC90E0FC018081882F90E08072A6
:100100009927892BB1F386EC90E02981FC012083AB
:1001100080E090E00F900F900F90DF91CF910895C5
:10012000CF93DF93CDB7DEB78AE790E02AE730E0E0
:10013000F9012081206EFC0120830000DF91CF9126
:100140000895CF93DF93CDB7DEB728970FB6F89415
:10015000DEBF0FBECDBF81E290E0FC01108282E2E3
:1001600090E02FEFFC01208384E290E02FEFFC0170
:10017000208385E290E0FC01108287E290E02FEF7F
:10018000FC01208388E290E0FC0110828AE290E08A
:1001900023E0FC0120838BE290E0FC0110820E94AE
:1001A00090008FEF91E09C838B8319821E821D82C9
:1001B0008B819C8196958795969587959695879541
:1001C00098878F8388E790E0FC01808191819E83EE
:1001D0008D8319821A8224C08A81882F90E001962B
:1001E000AC018F819885489F9001499F300D589FA1
:1001F000300D11248D819E8182179307A8F08A818A
:10020000282F30E081E090E002C0880F991F2A95E6
:10021000E2F7982F8981890F89838A818F5F8A838A
:100220008A818830C8F201C0000085E290E029810F
:0A023000FC012083C7CFF894FFCF34
:0E023A0000000002000000006700000000004D
:00000001FF
